:10000000BFC10000EEC10000ECC10000EAC1000069
:10001000E8C10000E6C10000E4C10000E2C1000048
:10002000E0C10000DEC10000DCC10000DAC1000058
:10003000D8C10000D6C10000D4C10000D2C1000068
:10004000D0C10000CEC10000CCC10000CAC1000078
:10005000C8C100000C946A20C4C100000C94E931AE
:10006000C0C100000C94452A0C941C2ABAC100009F
:10007000B8C10000B6C10000B4C10000B2C10000A8
:10008000B0C10000AEC10000ACC10000AAC10000B8
:10009000A8C10000A6C10000A4C10000A2C10000C8
:1000A000A0C100009EC100009CC100009AC10000D8
:1000B00098C1000096C1000094C1000092C10000E8
:1000C00090C100008EC100008CC100008AC10000F8
:1000D00088C1000086C1000084C1000082C1000008
:1000E00080C10000B83712384138BF37D1371A38CD
:1000F000393849384D3855385E385E385E385E38A4
:100100005E385E385E385E385E385E38CA37C7376C
:10011000850989098D099109950999099D09CF0AD0
:10012000D60ADD0AE40AEB0A030BF20A030BF90A0A
:100130005D114A114D11CC100612511156110612C3
:100140000612D910041106125411061259114F113A
:100150008511061206120612421145114811321B72
:10016000461B5A1BF61A1E1B0A1BF11AC92ECC2E4F
:10017000BB2EBF2EC52E032FD02ED42EDA2EDE2E70
:10018000E22EE82EEC2EF02E032FF62EFA2EFE2E67
:10019000084AD73B3BCE016E84BCBFFDC12F3D6CEE
:1001A00074319ABD56833DDA3D00C77F11BED9E454
:1001B000BB4C3E916BAAAABE000000803F05A84C34
:1001C000CDB2D44EB93836A9020C50B99186880800
:1001D0003CA6AAAA2ABE000000803F07634236B7A9
:1001E0009BD8A71A39685618AEBAAB558C1D3CB7C8
:1001F000CC5763BD6DEDFD753EF6177231BF000043
:1002000000803F08000000BE922449123EABAAAA1B
:100210002ABECDCCCC4C3E00000080BEABAAAAAA20
:100220003E00000000BF000000803F000000000012
:10023000084178D3BB4387D1133D190E3CC3BD425F
:1002400082AD2B3E68EC8276BED98FE1A93E4C8010
:10025000EFFFBE01C4FF7F3F000000000000000070
:100260002100240027002A002D0030003300010166
:100270000000040107010A010000220025002800F7
:100280002B002E003100340002010000050108019E
:100290000B01000020002300260029002C002F0065
:1002A00032000001000003010601090105050505F2
:1002B000070508080808020202020A0A08080404DE
:1002C000040401010101010101010303030303030C
:1002D0000303040707070C0C0C0C0C0C0C0C02029B
:1002E000020206060606060606060B0B0B0B0B0B98
:1002F0000B0B010210202008081020401020408025
:1003000002010201080402010102040810204080D9
:100310008040201008040201800402018040201067
:1003200008040201080402010102040810204080B0
:10033000010204081020408000000A0B02090C0D85
:100340000E08070304010000000000000000000088
:10035000000000000000000000000000000000009D
:10036000000000001211100000000000000000005A
:1003700000000000000000000000000000009939AB
:1003800011241FBECFEFD1E2DEBFCDBF00E00CBF16
:1003900014E0A0E0B2E0E4ECFFE700E00BBF02C035
:1003A00007900D92A432B107D9F72BE1A4E2B4E093
:1003B00001C01D92AF3CB207E1F711E0C0ECD1E003
:1003C00000E006C021970109802FFE010E94623FD4
:1003D000CF3BD10780E00807A9F70E9433320C9485
:1003E000E03F0ECE0F931F9380919D0490919E0449
:1003F000A0919F04B091A0048C019D016EE13695FF
:100400002795179507956A95D1F7013011052105B4
:10041000310599F4B5FF04C0BC01CD01906C03C057
:10042000BC01CD019F7324E630E040E050E00E9423
:10043000463F30932702209326028091A104909199
:10044000A204A091A304B091A4048C019D015EE1DB
:1004500036952795179507955A95D1F701301105CF
:100460002105310599F4B5FF04C0BC01CD01906CA4
:1004700003C0BC01CD019F7324E630E040E050E0B2
:100480000E94463F30932502209324028091A504C8
:100490009091A604A091A704B091A8048C019D019D
:1004A0004EE136952795179507954A95D1F7013076
:1004B00011052105310599F4B5FF04C0BC01CD013A
:1004C000906C03C0BC01CD019F7324E630E040E096
:1004D00050E00E94463F30932302209322021F9156
:1004E0000F91089580919D0490919E04A0919F0486
:1004F000B091A0044EE1B695A795979587954A953A
:10050000D1F70197A105B105C1F580E00E94E11A7C
:1005100080919D0490919E04A0919F04B091A004AD
:10052000B5FF02C0B06C01C0BF7380931E0C9093E6
:100530001F0CA093200CB093210C8093220C90935D
:10054000230CA093240CB093250C1092460C10920F
:10055000470C1092480C1092490C1092360C1092D5
:10056000370C1092380C1092390C1092260C109205
:10057000270C1092280C1092290C8091A1049091C4
:10058000A204A091A304B091A4043EE1B695A7955E
:10059000979587953A95D1F70197A105B105C1F5D2
:1005A00081E00E94E11A8091A1049091A204A0919F
:1005B000A304B091A404B5FF02C0B06C01C0BF7326
:1005C0008093DA0B9093DB0BA093DC0BB093DD0BE5
:1005D0008093DE0B9093DF0BA093E00BB093E10BC5
:1005E0001092020C1092030C1092040C1092050C45
:1005F0001092F20B1092F30B1092F40B1092F50B79
:100600001092E20B1092E30B1092E40B1092E50BA8
:100610008091A5049091A604A091A704B091A8048C
:100620002EE1B695A795979587952A95D1F70197CD
:10063000A105B105C1F582E00E94E11A8091A504EF
:100640009091A604A091A704B091A804B5FF02C0A0
:10065000B06C01C0BF738093960B9093970BA093DF
:10066000980BB093990B80939A0B90939B0BA0934C
:100670009C0BB0939D0B1092BE0B1092BF0B10926F
:10068000C00B1092C10B1092AE0B1092AF0B1092D8
:10069000B00B1092B10B10929E0B10929F0B109208
:1006A000A00B1092A10B089580919D0490919E043F
:1006B000A0919F04B091A0047EE1B695A79597956F
:1006C00087957A95D1F70197A105B10519F480E0D6
:1006D0000E94E11A8091A1049091A204A091A30428
:1006E000B091A4046EE1B695A795979587956A9504
:1006F000D1F70197A105B10519F481E00E94E11A33
:100700008091A5049091A604A091A704B091A8049B
:100710005EE1B695A795979587955A95D1F701977C
:10072000A105B10519F482E00E94E11A80919D04AF
:1007300090919E04A0919F04B091A0044EE1B695C3
:10074000A795979587954A95D1F7892B8A2B8B2B5F
:1007500079F58091A1049091A204A091A304B09195
:10076000A4043EE1B695A795979587953A95D1F75C
:10077000892B8A2B8B2BE1F48091A5049091A60400
:10078000A091A704B091A8042EE1B695A7959795DE
:1007900087952A95D1F7892B8A2B8B2B49F480E0FA
:1007A0000E94E11A81E00E94E11A82E00C94E11AB1
:1007B0000895CF92DF92EF92FF92CF9380919904A8
:1007C00090919A04A0919B04B0919C048E3B91055A
:1007D000A105B10509F052C08091AD049091AE041D
:1007E000A091AF04B091B004AC01BD012EE17695AB
:1007F0006795579547952A95D1F742305105610580
:100800007105E1F5B5FF02C0B06C01C0BF7390E0A7
:1008100090939504809394040E944617BC01990F0D
:10082000880B990B0E94EB3B20E030EC4FE754E43F
:100830000E94503B20E030E040EA50E40E94043D3A
:100840006B017C018091AD049091AE04A091AF0446
:10085000B091B004B5FF04C0BC01CD01906C03C0E1
:10086000BC01CD019F730E94EB3BC1E0A701960143
:100870000E94493B18161CF4C0E001C0C1E08C2F57
:10088000CF91FF90EF90DF90CF90089580919904E1
:1008900090919A04A0919B04B0919C048836910594
:1008A000A105B10501F58091B1049091B204A09128
:1008B000B304B091B404AC01BD012EE17695679507
:1008C000579547952A95D1F7413051056105710536
:1008D00051F4B5FF02C0B06C01C0BF7390E09093BB
:1008E00095048093940408958091990490919A04BA
:1008F000A0919B04B0919C048D3F9340A105B1054C
:1009000061F480E090E0A0E8BFE38093A1029093BF
:10091000A202A093A302B093A40208958091990427
:1009200090919A04A0919B04B0919C048C3F9340B9
:10093000A105B10561F483E393E3ABECB1E48093EB
:10094000A1029093A202A093A302B093A4020895DF
:10095000CF92DF92EF92FF928091990490919A0446
:10096000A0919B04B0919C048C3E9340A105B105DD
:1009700009F068C08091B1049091B204A091B304D1
:10098000B091B4043EE1B695A795979587953A95B1
:10099000D1F70197A105B10501F50E94DD316B0189
:1009A0007C018091B1049091B204A091B304B09104
:1009B000B404B5FF04C0BC01CD01906C03C0BC0100
:1009C000CD019F7324E630E040E050E00E94463FB6
:1009D000A8EEB3E00E946A3F30C08091AD049091D0
:1009E000AE04A091AF04B091B0042EE1B695A795E6
:1009F000979587952A95D1F70297A105B10511F52D
:100A00000E94DD316B017C018091AD049091AE04B8
:100A1000A091AF04B091B004B5FF04C0BC01CD01FA
:100A2000906C03C0BC01CD019F7324E630E040E030
:100A300050E00E94463FCA01B9016C0D7D1D8E1D1C
:100A40009F1D03C060E070E0CB01FF90EF90DF904E
:100A5000CF9008958F929F92AF92BF92CF92DF92E4
:100A6000EF92FF920F938091990490919A04A09134
:100A70009B04B0919C048B3E9340A105B10509F005
:100A80005AC08091A5049091A604A091A704B091AA
:100A9000A8046C017D01EEE1F694E794D794C79425
:100AA000EA95D1F762E0C616D104E104F10409F039
:100AB00042C02091B1043091B2044091B3045091EE
:100AC000B40469017A017EE1F694E794D794C7945F
:100AD0007A95D1F7E3E0CE16D104E104F10459F59B
:100AE000C090AD04D090AE04E090AF04F090B0049C
:100AF000460157016EE1B694A794979487946A953E
:100B0000D1F78A9489288A288B28A9F4B5FF04C0D4
:100B1000BC01CD01906C03C0BC01CD019F7355FF9A
:100B20005F73F5FE03C0E0ECFE2A02C0EFE3FE2295
:100B300001E00E9419120F91FF90EF90DF90CF908B
:100B4000BF90AF909F908F9008958F929F92AF9299
:100B5000BF92CF92DF92EF92FF920F938091990410
:100B600090919A04A0919B04B0919C048B3E934079
:100B7000A105B10509F05AC08091A5049091A60481
:100B8000A091A704B091A8046C017D01EEE1F69458
:100B9000E794D794C794EA95D1F762E0C616D104DA
:100BA000E104F10409F042C02091B1043091B20493
:100BB0004091B3045091B40469017A017EE1F69446
:100BC000E794D794C7947A95D1F7E3E0CE16D10491
:100BD000E104F10459F5C090AD04D090AE04E0906A
:100BE000AF04F090B004460157016EE1B694A794AB
:100BF000979487946A95D1F78A9489288A288B28B4
:100C0000A9F4B5FF04C0BC01CD01906C03C0BC01C8
:100C1000CD019F7355FF5F73F5FE03C0E0ECFE2A24
:100C200002C0EFE3FE2200E00E9419120F91FF9034
:100C3000EF90DF90CF90BF90AF909F908F900895EE
:100C40008F929F92AF92BF92CF92DF92EF92FF92DC
:100C5000CF93DF93EC01862F90919F02C880D980BB
:100C6000EA80FB80B701A6012EE17695679557953E
:100C700047952A95D1F7992361F0452B462B472BB1
:100C800061F0C701B601F5FE02C0906C08C09F7309
:100C900006C0452B462B472B79F40E94741B0E94FB
:100CA000EB3B2091A1023091A2024091A30250910E
:100CB000A4020E94043D1DC00E94741B0E94EB3BD5
:100CC0004B015C01C701B601F5FE02C0906C01C08A
:100CD0009F730E94EB3B2091A1023091A2024091B0
:100CE000A3025091A4020E94043DA50194010E9418
:100CF000BD3A0E94B83B688379838A839B83DF91E6
:100D0000CF91FF90EF90DF90CF90BF90AF909F90EA
:100D10008F900895AF92BF92CF92DF92EF92FF92A1
:100D20000F931F93CF93DF93CDB7DEB72C970FB6FA
:100D3000F894DEBF0FBECDBF80919D0490919E04BC
:100D4000A0919F04B091A00489839A83AB83BC8354
:100D50008091A1049091A204A091A304B091A40455
:100D60008D839E83AF83B8878091A5049091A6045C
:100D7000A091A704B091A80489879A87AB87BC8704
:100D800060E0CE0101965CDF61E0CE01059658DFA0
:100D900062E0CE01099654DF8091990490919A0403
:100DA000A0919B04B0919C04885E9340A109B10975
:100DB0000297A105B10508F041C08091AD04909162
:100DC000AE04A091AF04B091B0048C019D015EE12E
:100DD00036952795179507955A95D1F70130110546
:100DE0002105310599F4B5FF04C0BC01CD01906C1B
:100DF00003C0BC01CD019F7324E630E040E050E029
:100E00000E94463F309339022093380280917B0C38
:100E10008823A1F0A0903802B0903902C12CD12CC7
:100E2000E984FA840B851C852D813E814F8158858C
:100E300069817A818B819C810E9434198091990407
:100E400090919A04A0919B04B0919C04865E93407B
:100E5000A109B1090297A105B10510F083E050C0C6
:100E60008091AD049091AE04A091AF04B091B00414
:100E70008C019D014EE136952795179507954A956A
:100E8000D1F7013011052105310599F4B5FF04C0F2
:100E9000BC01CD01906C03C0BC01CD019F7324E661
:100EA00030E040E050E00E94463F3093390220930A
:100EB000380280917B0C8823A1F0A0903802B0907A
:100EC0003902C12CD12CE984FA840B851C852D8133
:100ED0003E814F81588569817A818B819C810E94F6
:100EE000341981E04091990450919A0460919B04D7
:100EF00070919C04463E53406105710509F080E005
:100F00002C960FB6F894DEBF0FBECDBFDF91CF9108
:100F10001F910F91FF90EF90DF90CF90BF90AF9017
:100F20000895DC017C9111966C91119712965C9159
:100F3000129713964C91139714963C91149715960B
:100F40002C91159716969C91169717968C9117973A
:100F5000ECE7FCE070836183528343833483258311
:100F60009683878318967C91189719966C91199798
:100F70001A965C911A971B964C911B971C963C9164
:100F80001C971D962C911D971E969C911E971F963F
:100F90008C9170876187528743873487258796872E
:100FA00087870895CF92DF92EF92FF920F931F935E
:100FB000CF93DF93C82F1092AD1B1092AE1B1092EF
:100FC000AF1B1092B01B10921807109219071092C5
:100FD0001A0710921B0710929704109296048091A2
:100FE000AD1B9091AE1BA091AF1BB091B01B883789
:100FF0009105A105B10570F42091A502222311F0FD
:10100000C1111FC02091B504222309F477C0C1117A
:1010100075C002C0C1110DC029E730E0281B390B93
:10102000309397042093960488379105A105B10564
:1010300040F01092AD1B1092AE1B1092AF1B10929D
:10104000B01B8091180790911907A0911A07B091D1
:101050001B07C9E9D4E08C01000F111F000F111FFD
:1010600020E030E0F801E20FF31FE357F14F408139
:101070005181628173814993599369937993205285
:101080003E4F20324DE0340769F7FC01EE0FFF1FA1
:10109000E355F34F0081118100938C0C10938D0C5C
:1010A00010928E0C10928F0C1092900C1092910C4A
:1010B0001092920C1092930C88589F4F880F991F92
:1010C000FC01E355F34F808191818093940C9093C0
:1010D000950C1092960C1092970C1092980C1092FE
:1010E000990C10929A0C10929B0CDF91CF911F914A
:1010F0000F91FF90EF90DF90CF9008958C2F0E947A
:10110000E4148091AC0C813009F069CF1092AC0CE2
:101110008091AD1B9091AE1BA091AF1BB091B01B05
:1011200046E254E0BC01660F771F660F771F20E090
:1011300030E0FA01C190D190E190F190AF01FB0154
:10114000E20FF31FE357F14FC082D182E282F382B4
:1011500020523E4F2032FDE03F0759F7FC01EE0FD1
:10116000FF1FE355F34F20919C0C30919D0C318370
:101170002083FC01E858FF4FEE0FFF1FE355F34FAC
:101180002091A40C3091A50C318320830196A11DE0
:10119000B11D8093AD1B9093AE1BA093AF1BB0937A
:1011A000B01B1DCF8F929F92AF92BF92CF92DF92D2
:1011B000EF92FF920F931F934091180750911907D8
:1011C00060911A0770911B074F5F5F4F6F4F7F4F02
:1011D000483751056105710548F44093180750934D
:1011E000190760931A0770931B0708C0109218071D
:1011F0001092190710921A0710921B0740911807B6
:101200005091190760911A0770911B07A9E9B4E082
:101210008A01000F111F000F111F20E030E0F901BB
:10122000E00FF11FE357F14FC080D180E280F380DF
:10123000CD92DD92ED92FD9220523E4F20329DE004
:10124000390769F7FA01EE0FFF1FE355F34F80806E
:10125000918080928C0C90928D0C10928E0C10923A
:101260008F0C1092900C1092910C1092920C109284
:10127000930C48585F4F440F551FFA01E355F34F45
:10128000008111810093940C1093950C1092960C90
:101290001092970C1092980C1092990C10929A0C34
:1012A00010929B0C9091A502992311F0811109C015
:1012B000809196049091970401969093970480935F
:1012C00096041F910F91FF90EF90DF90CF90BF9009
:1012D000AF909F908F900895CF93DF93DC0147707C
:1012E000552766277727FA013197CD91DC91119721
:1012F000E730F10530F48827E857FF4F8F4F0C9403
:10130000623FEC81FD8161E01BC0EC81FD8165E005
:1013100017C0EC81FD8164E013C0EC81FD8166E0C3
:101320000FC0EC81FD8162E00BC0EC81FD816AE0C1
:1013300007C0EC81FD8168E003C0EC81FD8169E0BC
:10134000CD01DF91CF911994CF93DF93EC01CB01C5
:10135000BA0126E030E040E050E00E94463F6230B3
:1013600071058105910559F18CF4611571058105AF
:101370009105F1F06130710581059105C1F5E881B4
:10138000F9810480F581E02D65E02DC064307105A0
:101390008105910511F1D4F0653071058105910544
:1013A00031F5E881F9810480F581E02D66E01BC00C
:1013B000E881F9810480F581E02D64E014C0E881C2
:1013C000F9810480F581E02D61E00DC0E881F981AB
:1013D0000480F581E02D63E006C0E881F981048096
:1013E000F581E02D62E0CE01DF91CF911994DF917C
:1013F000CF9108954370552766277727DC01ED913B
:10140000FC910480F581E02D4230510561057105A4
:1014100071F0433051056105710559F041305105B6
:101420006105710511F065E005C066E003C06AE082
:1014300001C069E01994CF93DF93EC01CB01BA01AD
:1014400023E030E040E050E00E94463F613071050B
:101450008105910581F0623071058105910591F05A
:10146000672B682B692BC1F4E881F9810480F58131
:10147000E02D64E00DC0E881F9810480F581E02D64
:1014800061E006C0E881F9810480F581E02D62E029
:10149000CE01DF91CF911994DF91CF9108954370E0
:1014A000552766277727DC01ED91FC910480F581B3
:1014B000E02D423051056105710571F04330510551
:1014C0006105710559F0413051056105710511F053
:1014D00062E005C063E003C061E001C060E0199410
:1014E000CF93DF93EC01E881F9810480F581E02D51
:1014F0008A81811102C060E001C062E0CE011995CD
:10150000E881F9810480F581E02D8A81811102C092
:1015100061E001C063E0CE0119958CA59DA58230E4
:10152000910538F0880F991F880F991F059701972B
:10153000F1F7E881F9810480F581E02D8A8181113C
:1015400002C060E001C062E0CE01DF91CF9119944A
:10155000CF93DF93EC0120E030E0A9016C897D8915
:101560008E899F890E94F93C18161CF4E8A9F9A9F4
:1015700002C0EAA9FBA9DF91CF9119940F931F93A1
:10158000DC0113960C91139710E009301105D8F582
:10159000F8018827E157FF4F8F4F0C94623FED9180
:1015A000FC9111970084F185E02D29C0ED91FC910B
:1015B00011970284F385E02D22C0ED91FC911197E3
:1015C0000484F585E02D1BC0ED91FC9111970684F4
:1015D000F785E02D14C0ED91FC9111970088F189F9
:1015E000E02D0DC0ED91FC9111970288F389E02D5B
:1015F00006C0ED91FC9111970488F589E02DCD018D
:101600001F910F9119941F910F9108950895CF93F1
:10161000DF93EC0160E08E810E944E3161E08E81AB
:101620000E944E3160E08E810E944E318BE891E045
:101630000197F1F7DF91CF910895CF92DF92EF926A
:10164000FF920F931F93CF93DF93EC019B81943014
:1016500041F0983031F0933031F0963021F012E0C3
:1016600003C014E001C013E02496E12CF12CC62E37
:10167000D12C01E0C6010E2C02C0959587950A94E5
:10168000E2F76C8180FD602789910E944E318FEFD7
:10169000E81AF80AE11670F3DF91CF911F910F91CC
:1016A000FF90EF90DF90CF900895CF93DF93FC01F0
:1016B0002381222359F1EC0161E084810E947C3175
:1016C00061E08D810E947C318B81843011F0883003
:1016D00039F461E08E810E947C3161E08F8106C027
:1016E000833011F0863021F461E08E810E947C31DC
:1016F0008FA58F3F59F061E00E947C316EA581E09B
:1017000068278FA5DF91CF910C944E31DF91CF9157
:101710000895CF93DF93FC0123812223A9F0EC01EC
:101720000190F081E02D0480F581E02D60E01995B5
:101730008FA58F3F49F061E00E947C316EA58FA597
:10174000DF91CF910C944E31DF91CF9108950496A3
:101750000C94042FCF93DF931F92CDB7DEB769832C
:1017600041E050E0BE016F5F7F4F04960E94042F5E
:101770000F90DF91CF91089504960C94342D3F92F1
:101780004F925F926F927F928F929F92AF92BF9291
:10179000CF92DF92EF92FF920F931F93CF93DF933D
:1017A00000D01F92CDB7DEB74C01FC01828184606E
:1017B00082834484558466847784A680B780F5014B
:1017C000C084D184E284F384C414D504E604F7040D
:1017D000C0F47301620110E0FFEFCF1ADF0AEF0AD5
:1017E000FF0AF501808D918DA28DB38D8C159D051D
:1017F000AE05BF0540F4111132C0C084D184E2842B
:10180000F38411E0E9CF4C145D046E047F0439F1D8
:101810009E012F5F3F4FB701A601C5010E94922C88
:1018200087FD1DC08823C1F289819A81AB81BC816B
:10183000892B8A2B8B2B81F6112329F0F501C08689
:10184000D186E286F3860FEF1FEF2FEF3FE0B7015F
:10185000A601C5010E94232C382E811102C0312C13
:1018600015C0411451046104710431F4F401C486BB
:10187000D586E686F7860AC097018601B301A201E4
:10188000C5010E94232C8111F1CFE9CF832D0F9048
:101890000F900F900F90DF91CF911F910F91FF90BC
:1018A000EF90DF90CF90BF90AF909F908F907F9000
:1018B0006F905F904F903F900895CF92DF92EF929C
:1018C000FF920F931F93CF93DF936C017C0187E00E
:1018D000E80EF11CC0E0D0E0062F10E0B8010C2E9D
:1018E00002C0759567950A94E2F76170F7018191DE
:1018F0007F010E944E312196C430D10579F7C6018F
:10190000DF91CF911F910F91FF90EF90DF90CF90DB
:101910007ECECF92DF92EF92FF920F931F93CF93E1
:10192000DF93EC01F62E642F8C810E944E318D8165
:101930008F3F19F060E00E944E318F850F2D10E02F
:1019400084FF24C06E0187E0C80ED11CE12CF12C6D
:10195000B8010E2C02C0759567950A94E2F7617084
:10196000F60181916F010E944E31FFEFEF1AFF0ADD
:1019700088E0E816F10461F7CE01DF91CF911F9165
:101980000F91FF90EF90DF90CF9041CEB80184E0AF
:10199000759567958A95E1F7CE018FDF6F2DCE01A2
:1019A000DF91CF911F910F91FF90EF90DF90CF903B
:1019B00084CF41E0AEDF81E090E008954F925F92E6
:1019C0006F927F928F929F92AF92BF92CF92DF924F
:1019D000EF92FF92CF93DF93EC016A017B0120E04D
:1019E00030E0A901C701B6010E94493B87FF04C04E
:1019F000F7FAF094F7F8F0948C8C9D8CAE8CBF8C39
:101A0000A7019601C501B4010E94493B882309F44E
:101A100049C06CA97DA98EA99FA90E94EB3B2B010F
:101A20003C01A7019601C501B4010E94503B9B01F6
:101A3000AC01C301B2010E94043D0E94B83B6CABF3
:101A40007DAB8EAB9FABA701960160E070E080E0BC
:101A500090E40E94503B0E94B73D26E53EE04DE2F7
:101A60005FE30E94043D20E034E244E759E40E9431
:101A7000043D68AF79AF8AAF9BAFCC8EDD8EEE8E22
:101A8000FF8ECE01DF91CF91FF90EF90DF90CF904E
:101A9000BF90AF909F908F907F906F905F904F908E
:101AA0000C946922DF91CF91FF90EF90DF90CF905F
:101AB000BF90AF909F908F907F906F905F904F906E
:101AC0000895AF92BF92DF92EF92FF920F931F9310
:101AD000CF93DF93EC017B018B015C0184E0A80EC6
:101AE000B11CF801D1908F01CE010E94A63AD81600
:101AF00021F06D2DCE010E94AE3A2196CA15DB056C
:101B000081F7C701DF91CF911F910F91FF90EF9067
:101B1000DF90BF90AF900895AF92BF92DF92EF92A7
:101B2000FF920F931F93CF93DF93EC017B018B0107
:101B30005C0182E0A80EB11CF801D1908F01CE01AA
:101B40000E94A63AD81621F06D2DCE010E94AE3A21
:101B50002196CA15DB0581F7C701DF91CF911F914F
:101B60000F91FF90EF90DF90BF90AF900895CF92CC
:101B7000DF92EF92FF920F931F93CF93DF93EB01CE
:101B80007B0124E0E20EF11C8B016C01C61AD70A1E
:101B9000C601800F911F0E94A63AF80181938F0120
:101BA000EE15FF05A9F7CE01DF91CF911F910F919F
:101BB000FF90EF90DF90CF9008950F931F93CF93F6
:101BC000DF938C01EB010E94A63A8883C80101963D
:101BD0000E94A63A8983CE01DF91CF911F910F9188
:101BE00008954F925F926F927F928F929F92AF92E1
:101BF000BF92CF92DF92EF92FF920F931F93CF93FA
:101C0000DF93CDB7DEB7A0970FB6F894DEBF0FBE57
:101C1000CDBF8C010E94DD312B013C0128EE420E2C
:101C200023E0521E611C711C0E94DD316415750594
:101C30008605970508F05BC080914E08811157C05A
:101C400080912A08807709F452C080913A089091D7
:101C50003B08A0913C08B0913D088F719927AA27B5
:101C6000BB27892B8A2B8B2B09F041C0F12CE12C4F
:101C700080903A0890903B08A0903C08B0903D08B6
:101C800060E08AE298E00E94432E009781F1DC0137
:101C90002C91222361F12E3211F4F12CE9CF253E53
:101CA000E1F31B963C9133FD07C0FF2071F00E94C9
:101CB000252D8E111CC009C03F3079F726FFD8CFE3
:101CC0002F71F22EFC01E584D3CFB501A40185E08C
:101CD00076956795579547958A95D1F72F2D6AE2A6
:101CE00078E08EE498E00E945E17811103C0BB2467
:101CF000B39411C180914E08F82FF077BF2E49F5AB
:101D000019821A828823F1F090915108992331F1B8
:101D10008091560890915708A0915808B0915908A1
:101D200060915408709155089E012F5F3F4F7901D3
:101D30000097A105B10509F065C0C9010E948C2E6C
:101D400081116FC0F80110828EE498E00E94A62EE7
:101D5000E2C08EE498E00E94A62E66CF807631F035
:101D60008FE2D8018C9311961C92EECF40916208BD
:101D700050916308609164087091650880915408DF
:101D80009091550820E080960E94E52B0097E1F2A3
:101D9000E0915208F0915308EF70FF2735E0EE0F05
:101DA000FF1F3A95E1F77F01E80EF91EE114F104F7
:101DB00059F2D70148E080E090E05EE22C912032B9
:101DC000C9F0983039F49801280F311DF90150837A
:101DD0008F5F40E12C913FEB320F3A3128F4F7014D
:101DE0003485342309F0205EB801680F711DFB01B2
:101DF00020838F5F9F5F11969B3001F7F801E80FFA
:101E0000F11DA1CF20E2F70111922A95E9F720E117
:101E1000298321E02B8378876F838D8F9E8FAF8FEF
:101E2000B8A3AA24A3942DE0922E809151088A157C
:101E300008F488CFCA2CD12C4091520850915308F5
:101E40004C195D0960E070E095E0440F551F661F76
:101E5000771F9A95D1F7C7010E94802D882309F436
:101E600071CF60E0C7010E94432EFC01892B09F469
:101E700069CF83858F3009F065CF80818F7190E0C5
:101E8000C816D90609F05ECF21E0C21AD1089C9C81
:101E900090019D9C300D1124C801820F931F6F018A
:101EA00060E0D601653028F411964D915C9112974F
:101EB0000BC06B3028F414964D915C91159704C0BB
:101EC00016964D915C9117974115510591F02E3161
:101ED0003105C8F42F5F3F4F4F37510508F04FE3EE
:101EE000DC014D93CD016F5FB2E0CB0ED11C6D30A4
:101EF000C1F62E31310538F4808186FF04C0D80147
:101F0000A20FB31F1C92D8015D961C92808186FDA2
:101F10001BCFA3948ACF8B2DA0960FB6F894DEBF6B
:101F20000FBECDBFDF91CF911F910F91FF90EF902A
:101F3000DF90CF90BF90AF909F908F907F906F90E9
:101F40005F904F900895609124047091250442E2BF
:101F500054E08AE298E00C94A3201092A5026091CC
:101F6000240470912504AC018EE498E00E94A32023
:101F700080E00895282F30E0205331092A303105C0
:101F800088F490916007961748F4E92FF0E0E75A3B
:101F9000F84F80839F5F90936007089581E280935C
:101FA000620708958A30D1F7089510926007109261
:101FB0006207109261078FEF8093A602E9E5F7E0D0
:101FC000119287E0E036F807D9F70895CF92DF92B3
:101FD000EF92FF92CF93DF93C091A602CF3F09F417
:101FE00046C080916007282F30E00C2E000CDD0BDE
:101FF000A9014C1B5D0B433051053CF0F901E75A38
:10200000F84F108281508093600789E597E00E9425
:10201000813ABC01990F880B990B0E94EB3B6B0135
:102020007C018091600790E08C1B9D0B62E070E06A
:10203000681B790B161617061CF0BC01625071095B
:10204000072E000C880B990B0E94EB3B9B01AC0107
:1020500060E070E080E291E40E94673D9B01AC018A
:10206000C701B6010E94043D0E94B83B0FC089E53C
:1020700097E00E94813A24E6AC01249FC001259F8D
:10208000900D1124BC01990F880B990BDF91CF9112
:10209000FF90EF90DF90CF9008951F93CF93DF9341
:1020A000C82F80916207893009F44CC0162F8091A7
:1020B0006007D0E0882331F1809161078130B1F46D
:1020C00085DFFE01EE0FFF1FEE0FFF1FE45CF84FF0
:1020D0009B01AC0188279927DC01821B930BA40B81
:1020E000B50B80839183A283B3830CC06FDFFE01A5
:1020F000EE0FFF1FEE0FFF1FE45CF84F608371834C
:1021000082839383CC0FDD1FCC0FDD1FC45CD84FBF
:1021100088819981AA81BB81AC01BD017F73812F28
:1021200090E0A0E0B0E02EE1880F991FAA1FBB1F2E
:102130002A95D1F7842B952BA62BB72B88839983CF
:10214000AA83BB83DF91CF911F9108952F923F9275
:102150004F925F926F927F928F929F92AF92BF92B7
:10216000CF92DF92EF92FF920F931F93CF93DF9363
:10217000E0916207E13209F449C18E2F90E0FC0141
:10218000E454F109E731F10508F040C18827E85629
:10219000FF4F8F4F0C94623F89E597E00E94813A90
:1021A000092E000CAA0BBB0B88519C4FAF4FBF4FA1
:1021B000A3C089E597E00E94813A092E000CAA0B82
:1021C000BB0B80933C0790933D07A0933E07B093D1
:1021D0003F074797A105B10509F018C183E697E0CD
:1021E000092E000CAA0BBB0BBF73B0648093400791
:1021F00090934107A0934207B093430781E08093F7
:1022000082071092810702C189E597E00E94813A16
:102210008C010C9798F521E030E040E050E060E060
:1022200070E080E090E00E94743FE0912C072E2B3C
:10223000E0912D073E2BE0912E074E2BE0912F07CA
:102240005E2BE09130076E2BE09131077E2BE09101
:1022500032078E2BE09133079E2B20932C0730936F
:102260002D0740932E0750932F07609330077093EC
:1022700031078093320790933307C8C089E0809379
:102280006207C4C061E081E016C061E082E013C073
:1022900061E008C061E084E00EC061E00BC061E075
:1022A00006C062E083E007C062E004C063E086E04D
:1022B00002C064E085E0F1DEA9C089E597E00E94F4
:1022C000813A009761F480913C0790913D07A0917D
:1022D0003E07B0913F070297A109B1090DC00197D0
:1022E00069F680913C0790913D07A0913E07B0911F
:1022F0003F070397A109B10980933C0790933D07DD
:10230000A0933E07B0933F0781C089E597E00E9404
:10231000813A5C0182E0A816B10408F0AFCF90903A
:102320002C0780902D0770902E0760902F075090FB
:102330003007409031073090320720903307C0902B
:102340001C07D0901D07E0901E07F0901F0710910A
:102350002007D0912107C0912207B0912307E0E028
:10236000F0E0292D382D472D562D652D742D832D08
:10237000922D0E2F0E948F3F217030E040E050E000
:1023800060E070E080E090E0A0E00E94AB3F49F1A7
:1023900021E0A114B10459F00E94743FC22AD32A4B
:1023A000E42AF52A162BD72BC82BB92B1AC030E0FC
:1023B00040E050E060E070E080E090E00E2F0E948E
:1023C000743F209530954095509560957095809517
:1023D0009095C222D322E422F5221623D723C823C4
:1023E000B9233196EC30F10509F0BBCFC0921C0740
:1023F000D0921D07E0921E07F0921F07109320074E
:10240000D0932107C0932207B0932307DF91CF9188
:102410001F910F91FF90EF90DF90CF90BF90AF9002
:102420009F908F907F906F905F904F903F902F90F4
:10243000BCCD4F925F926F927F928F929F92AF929C
:10244000BF92CF92DF92EF92FF920F93CF93DF93E1
:1024500000D01F92CDB7DEB72B013C0149015A01D4
:102460001092A70280E00E94741B69837A838B8399
:102470009C8381E00E94741B9B01AC0169817A817D
:102480008B819C810E94463FCA01B9010E94EB3BAF
:102490000E94213B6093770C7093780C8093790CA9
:1024A00090937A0CC301B201A50194010E94463FAA
:1024B000CA01B9010E94EB3B0E94213B6093730C5F
:1024C0007093740C8093750C9093760C00936E0C43
:1024D000C0926F0CD092700CE092710CF092720C62
:1024E0000F900F900F900F90DF91CF910F91FF9071
:1024F000EF90DF90CF90BF90AF909F908F907F90A4
:102500006F905F904F900895EF92FF920F931F93FB
:10251000CF93DF9350913A0240919304541729F0DE
:1025200021E0209388071092870720918707309138
:102530008807261708F05AC0231709F459C023301A
:1025400018F00DEF020F01C000E07C01353020F4DF
:10255000253028F4541741F1243008F400E0162FF8
:10256000101B153008F014E081E00E9402278BE375
:102570009FE10197F1F7E701C00FD11DC00FD11DF9
:10258000F12CF11689F08F2D0E94D32867E174E0B9
:1025900086E59CE00E94102D6991799186E59CE08A
:1025A0000E94102DF394EDCF80918807801B0E942C
:1025B000D32867E174E086E59CE00E94102D8091AD
:1025C0008707801B0E94D32869E174E086E59CE0C0
:1025D0000E94102D8091930490913A029813809359
:1025E0003A02809187078093880702C0309387075B
:1025F000DF91CF911F910F91FF90EF9008950F936E
:102600001F93CF93DF9360E08AE20E944E3161E036
:102610008AE20E944E31C0E0D0E001E010E088E2A2
:102620000E9426312091C51B892B41F4C8010C2E34
:1026300001C0880F0A94EAF7822B08C0C8010C2E4B
:1026400001C0880F0A94EAF7809582238093C51B06
:1026500061E08CE20E944E3160E08CE20E944E31DB
:102660002196C830D105D9F6DF91CF911F910F91F6
:102670000895CF93DF93EC01C2DF8091C51B90E0FA
:102680009C01359527953595279520FF04C020910D
:102690008607222371F09C0155E0359527955A95C0
:1026A000E1F720FF44C020918507222309F454C09C
:1026B0003EC081E0809386078091930480933A0224
:1026C000109293048091C51B90E09C01359527954D
:1026D0003595279520FD04C02091860721117DC0E6
:1026E0009C01E5E035952795EA95E1F720FD04C0CA
:1026F00020918507211174C09C0176E035952795BE
:102700007A95E1F720FD04C02091840721116BC068
:1027100063E0959587956A95E1F780FD67C08091A4
:102720008307882309F462C0109283075FC09C016D
:1027300046E0359527954A95E1F720FF39C020916D
:102740008407211135C081E0809384078091870739
:102750008F5F80938707B6CF8091930480933A026E
:10276000E09187078430D9F4F0E0EE0FFF1FEA5ABA
:10277000FB4FC081D1818091920491E09093B60487
:1027800080939804B5D6CE01E8DB81E00E94D207A1
:1027900061E089E00E944E311092930405C0CE0F93
:1027A000D11D88818093930481E0809385078ACF2F
:1027B00023E0959587952A95E1F780FF83CF809157
:1027C000830781117FCF81E0809383078091870702
:1027D000882309F477CF8150BCCF1092860780CF31
:1027E0001092850789CF1092840792CFDF91CF9105
:1027F0000895ECE1F7E010821182128213821482B4
:102800001582168217821086118612861386148608
:10281000158616861786089510926207109258073B
:10282000ECE3F7E0119211921192119287E0E835F2
:10283000F807C1F70895ECE2F7E0108211821282E6
:1028400013821482158216821782108611861286D0
:10285000138614861586168617860895CF93DF9300
:10286000C6E2D4E0FE01119211921192119284E01D
:10287000E234F807C1F710929C0C10929D0C109254
:102880009E0C10929F0C1092A00C1092A10C109212
:10289000A20C1092A30C1092A40C1092A50C1092F2
:1028A000A60C1092A70C1092A80C1092A90C1092D2
:1028B000AA0C1092AB0C80915807813009F04DC0E2
:1028C00080ED97E0A0E0B0E080933C0790933D0757
:1028D000A0933E07B0933F0780911C0780939C0C08
:1028E00080911D0780939D0C80911E0780939E0C04
:1028F00080911F0780939F0C809120078093A00CEC
:10290000809121078093A10C809122078093A20CD3
:10291000809123078093A30C809124078093A40CBB
:10292000809125078093A50C809126078093A60CA3
:10293000809127078093A70C809128078093A80C8B
:10294000809129078093A90C80912A078093AA0C73
:1029500080912B078093AB0C03C0811101C049DF2C
:1029600080913C0790913D07A0913E07B0913F07B1
:102970008093260490932704A0932804B0932904FD
:10298000E0E4F7E081919191A191B191AC01BD0199
:102990002EE176956795579547952A95D1F7452B62
:1029A000462B472B21F08C839D83AE83BF832496D7
:1029B00087E0E835F80731F781E08093AC0C2CDF35
:1029C000F4DADF91CF9137CFCF92DF92EF92FF927F
:1029D0000F931F93CF93DF931F92CDB7DEB7082FCE
:1029E0008823D1F180914E0883FF15C0809166083D
:1029F00090916708A0916808B091690840915E08BD
:102A000050915F086091600870916108841B950B7C
:102A1000A60BB70B03C080E090E0DC01811520E835
:102A20009207A105B10520F08FEF9FE7A0E0B0E08D
:102A3000892B71F0BE016F5F7F4F8EE498E04DD11E
:102A4000019711F4898102C08FEF9FEF182F2FC0DB
:102A500081E08093A5022AC00E94DD316B017C01D8
:102A600022E3C20ED11CE11CF11C0E94DD316C1569
:102A70007D058E059F05B8F489E897E00E943E2900
:102A8000892B99F389E897E00E941C29182F682F59
:102A900089E897E00E9475296BE174E089E897E086
:102AA0000E94102D04C081E08093B50410E0809155
:102AB000A502882311F0011113C08091B504882369
:102AC00011F0002369F08091A502882311F0011113
:102AD00010C08091B504882341F0002351F005C057
:102AE0001092820733DBBADEEECF1A3029F42EDBE8
:102AF000B5DE109282077FC080918207882359F04B
:102B000080918107E82FF0E0ED59F84F10838F5F37
:102B10008093810770C0103211F418DB6CC0809173
:102B20006207811127C010936207809158071E34F5
:102B300021F4823058F481E014C0173459F01D3468
:102B400069F0143489F4823009F455C081E280932D
:102B5000620751C08111FACF82E003C08111F6CF24
:102B600083E08093580747C0143509F044C0813092
:102B700069F741C0873421F093EB980F923010F43D
:102B800063E037C098EA980F933070F09BEB980F92
:102B9000923050F097EB980F923030F0803521F062
:102BA0009EEA980F923008F51D3221F481E080935F
:102BB000610721C01E3229F4809160078093A6022C
:102BC0001AC0812F90E0C0970A9708F0BFCF80917C
:102BD0006007853008F0BACFE82FF0E0E75AF84FE9
:102BE00010838F5F8093600706C08F7E843419F452
:102BF00061E0812FBFD90F90DF91CF911F910F918D
:102C0000FF90EF90DF90CF9008956EE174E089E837
:102C100097E00E94102D0E94DD3124E630E040E074
:102C200050E00E94243F4AE00E94612661E274E085
:102C300089E897E00E94102D4AE068EC70E080E09F
:102C400090E00E9461266BE174E089E897E00C94C3
:102C5000102DEF92FF920F931F93CF93DF93EC0110
:102C60007B010E94DD318B010E94932A8C838F3F70
:102C700049F40E94DD31601B710B693E7340A0F383
:102C800085E503C08E3F39F080E58883CE010E9440
:102C9000B22A80E01BC08FEF8EBDF701D701A15093
:102CA000BE4F9FEF0DB407FEFDCF8EB59EBD819345
:102CB000EA17FB07B9F70DB407FEFDCF8EB58C936D
:102CC0001C820E94932A0E94932A81E0DF91CF9177
:102CD0001F910F91FF90EF900895DF92EF92FF9276
:102CE0000F931F93CF93DF93EC018B012881222355
:102CF000E9F08A8180FF1AC01FC0D380D422E1147A
:102D0000F10409F078C0D11076C0892B8A2B8B2B67
:102D100009F456C04C855D856E857F859E01245FD4
:102D20003F4FCF010E94922C87FF5AC08981826059
:102D300089838FEF9FEFA2C023FF14C0888D998DE8
:102D4000AA8DBB8D488959896A897B89841B950B1B
:102D5000A60BB70B82309105A105B105A0F4009731
:102D600091F46AC025FF0FC0EE81FF8186819781B3
:102D700045E0880F991F4A95E1F7488959898417DA
:102D8000950709F457C088899989AA89BB897C016C
:102D900031E0F322EE81FF81AC01BD0139E076958F
:102DA0006795579547953A95D1F725FFA6CF848D1E
:102DB000958DA68DB78D480F591F6A1F7B1F41C087
:102DC00026FF05C0848D958DA68DB78D04C08C8D92
:102DD0009D8DAE8DBF8D8C879D87AE87BF870BC0C5
:102DE000811109C08881807709F4A0CF81E090E04B
:102DF00021E030E023C0EE81FF814C855D856E854A
:102E00007F854250510961097109048004C0440F53
:102E1000551F661F771F0A94D2F780899189A2896E
:102E2000B389480F591F6A1F7B1F4D0D511D611D2E
:102E3000711D07C080E090E020E030E0821B930B22
:102E40001DC08E819F8120E080960E94E52B009717
:102E500009F46CCFFC01EE0DFF1D8081F801808329
:102E600088899989AA89BB890196A11DB11D888B82
:102E7000998BAA8BBB8B81E090E0DECFDF91CF9165
:102E80001F910F91FF90EF90DF90089580917B004C
:102E9000886080937B0085E480937C0080917A0039
:102EA000806480937A0080917A0086FDFCCF8091C7
:102EB00078002091790090E0922B0895CF92DF92D4
:102EC000EF92FF920F931F93CF93DF93DC0180E289
:102ED000ED0119928A95E9F7EB01EE81FF811796D2
:102EE000FC93EE93169715965C934E931497CC8CA7
:102EF000DD8CEE8CFF8C1896CD92DD92ED92FC92DB
:102F00001B974F705527EF01A79635E0440F551FCB
:102F10003A95E1F7BE01640F751FEB018B8583FDC8
:102F200045C0CF01840F951FEC019AA997719C931E
:102F3000EB018B85887111F498609C9313962C9308
:102F4000139781E012968C93129703A114A125A1E7
:102F500036A154960D931D932D933C935797E40FF0
:102F6000F51F43AD54AD60E070E0BA01552744272A
:102F7000EF01CF5BDF4F0881198120E030E0402B6B
:102F8000512B622B732B5C964D935D936D937C93C9
:102F90005F97ED5BFF4F408151816281738158964D
:102FA0004D935D936D937C935B9702C01C9280E080
:102FB000DF91CF911F910F91FF90EF90DF90CF9015
:102FC00008952F923F924F925F926F927F928F92CD
:102FD0009F92AF92BF92CF92DF92EF92FF920F93A8
:102FE0001F93CF93DF9300D0CDB7DEB77C017B83F7
:102FF0006A83FA01DB018C91807709F4ECC0D70178
:103000008C918111E8C0C180D2808081837009F4E5
:10301000D1C0C6010C966DE070E00E94FD3E3324E5
:103020003394360E8F0140E050E0BA018A819B81D3
:103030000E94802D1982812C212C912C5801B6E000
:10304000AB0EB11CEA81FB8140885188628873888D
:1030500061E0CF010E94432E009709F4BCC0DC015F
:103060002C91253E09F4B3C0222321F0231408F447
:10307000A4C009C0231408F0AEC02394222309F48D
:10308000AAC0253E11F02E3211F4912CDBCFFC01A9
:1030900033853F3009F052C0911008C026FFD2CFCF
:1030A0002F71822EF585F983922E07C08A942811FC
:1030B000ECCF2585B9812B13E8CF482D50E0415046
:1030C0005109EDE0E49F9001E59F300D11242C158E
:1030D0003D05D8F6FC01712C64E0671518F081817C
:1030E000928108C08AE0871518F08481958102C01A
:1030F00086819781C216D30621F4892B09F4A2CFC9
:10310000C4CF8F3F910509F000F64FEB480F4A31CD
:1031100008F4805EB9016F5F7F4FD80113964D911F
:103120005C911497240F351FD9019C912FEB290F27
:103130002A3108F4905E9813A8CF41C033FDA5CF83
:10314000992049F0B1E08B1246C00E94252DE981FB
:10315000E81341C00CC04BE050E0B5010E94CA3FEB
:10316000892B09F06FCFD8018C9180FD6BCFB30113
:10317000A20185E076956795579547958A95D1F791
:10318000292D6A817B81C7010F900F900F90DF91ED
:10319000CF911F910F91FF90EF90DF90CF90BF9054
:1031A000AF909F908F907F906F905F904F903F90E7
:1031B0002F9084CE3324339435CF212C64CF739455
:1031C0003296BDE07B1609F43DCF9B0185CF2314D9
:1031D00008F05BCF52CF80E00F900F900F90DF91FF
:1031E000CF911F910F91FF90EF90DF90CF90BF9004
:1031F000AF909F908F907F906F905F904F903F9097
:103200002F90089580E090E008958091B31B88236B
:1032100051F11092B31B609138027091390280E035
:1032200090E00E94E93BAB01BC0182E19CE00E947E
:10323000D42320E030E0A9016091260C7091270C86
:103240008091280C9091290C0E94493B882321F001
:1032500082E19CE00E94BE2482E19CE00E94452421
:1032600081E080937B0C08954F925F926F927F92E2
:10327000AF92BF92CF92DF92EF92FF920F931F9384
:10328000CF93DF93CDB7DEB760970FB6F894DEBF6C
:103290000FBECDBF69837A838B839C832D833E834E
:1032A0004F835887ED86FE860F87188B10927B0C14
:1032B000609126027091270280E090E00E94E93B35
:1032C0002B013C0169817A818B819C810E94EB3BBF
:1032D0002AE037ED43E25CE30E94043DA301920142
:1032E0000E94043D0E94B83B69877A878B879C8740
:1032F0006D817E818F8198850E94EB3B2AE037EDBE
:1033000043E25CE30E94043D69837A838B839C8360
:10331000609124027091250280E090E00E94E93BD8
:103320009B01AC0169817A818B819C810E94043D63
:103330000E94B83B69837A838B839C83C801B70161
:103340000E94EB3B2AE037ED43E25CE30E94043D40
:103350006D837E838F839887609122027091230210
:1033600080E090E00E94E93B9B01AC016D817E8191
:103370008F8198850E94043D0E94B83B6D837E83B7
:103380008F839887C601B5010E94EB3B6B017C01DE
:103390009B01AC01C301B2010E94043DAB01BC0121
:1033A00082E19CE00E94D423609124027091250266
:1033B00080E090E00E94E93BA70196010E94043D55
:1033C000AB01BC018EEC9BE00E94D42360912202F1
:1033D0007091230280E090E00E94E93BA7019601F2
:1033E0000E94043DAB01BC018AE89BE00E94D4230B
:1033F0008091220C9091230CA091240CB091250C6B
:1034000029853A854B855C85281739074A075B076C
:1034100061F02093220C3093230C4093240C5093A2
:10342000250C82E19CE00E9469228091DE0B909144
:10343000DF0BA091E00BB091E10B29813A814B8128
:103440005C81281739074A075B0761F02093DE0B80
:103450003093DF0B4093E00B5093E10B8EEC9BE03D
:103460000E94692280919A0B90919B0BA0919C0BDA
:10347000B0919D0B2D813E814F81588528173907CA
:103480004A075B0701F120939A0B30939B0B409303
:103490009C0B50939D0B8AE89BE060960FB6F894C6
:1034A000DEBF0FBECDBFDF91CF911F910F91FF9077
:1034B000EF90DF90CF90BF90AF907F906F905F9034
:1034C0004F900C94692260960FB6F894DEBF0FBE41
:1034D000CDBFDF91CF911F910F91FF90EF90DF90C3
:1034E000CF90BF90AF907F906F905F904F90089576
:1034F000EF92FF920F931F93CF93E0904302F090CF
:1035000044020091450210914602209141023091FF
:10351000420240913F025091400263E182E19CE00F
:103520000E942625C82FE0903B02F0903C020091BB
:103530003D0210913E0220914102309142024091A1
:103540003F025091400262E18EEC9BE00E942625F2
:10355000C823E0904604F09047040091480410917D
:103560004904209141023091420240913F02509122
:1035700040026EE08AE89BE00E9426258C2319F029
:1035800081E080937B0CCF911F910F91FF90EF9082
:10359000089582E19CE00E94890B8EEC9BE00E94E2
:1035A000890B8AE89BE00E94890B86E49BE00E94DD
:1035B000890B82E09BE00E94890B8EEB9AE00C94D1
:1035C000890BEF92FF920F931F9390E08730910544
:1035D00008F085C0FC018827E155FF4F8F4F0C9400
:1035E000623F1F910F91FF90EF9082CFE0905204C5
:1035F000F09053040091540410915504209151020D
:103600003091520240914F02509150026FEF82E090
:103610009BE063C0E0904E04F0904F040091500492
:103620001091510420914D0230914E0240914B0275
:1036300050914C026FEF8EEB9AE04FC0E0904A043D
:10364000F0904B0400914C0410914D0420914902DC
:1036500030914A0240914702509148026FEF86E450
:103660009BE03BC0E0904302F09044020091450291
:1036700010914602209141023091420240913F0256
:103680005091400263E182E19CE027C0E0903B0260
:10369000F0903C0200913D0210913E0220914102C7
:1036A0003091420240913F025091400262E18EEC23
:1036B0009BE013C0E0904604F0904704009148045A
:1036C00010914904209141023091420240913F0201
:1036D000509140026EE08AE89BE00E9426251F91EF
:1036E0000F91FF90EF900895CF92DF92EF92FF92AB
:1036F000823009F440C0B0F4882361F1813009F0D0
:103700007FC06091DA0B7091DB0B8091DC0B9091A4
:10371000DD0B0E94EB3B6B017C01609124027091F8
:1037200025025BC0843009F448C0B0F1853009F04F
:1037300067C06091CA0A7091CB0A8091CC0A9091BF
:10374000CD0A0E94EB3B6B017C0160911E027091DF
:103750001F0243C060911E0C70911F0C8091200CC1
:103760009091210C0E94EB3B6B017C016091260241
:103770007091270232C06091960B7091970B8091E7
:10378000980B9091990B0E94EB3B6B017C0160912F
:1037900022027091230221C060910E0B70910F0BD9
:1037A0008091100B9091110B0E94EB3B6B017C01FF
:1037B00060911C0270911D0210C06091520B7091BB
:1037C000530B8091540B9091550B0E94EB3B6B0176
:1037D0007C01609120027091210280E090E00E94C3
:1037E000E93B9B01AC01C701B6010E94503B20E0C0
:1037F00030E048EC52E40E94043D0E94B83B00C017
:10380000FF90EF90DF90CF9008954F925F926F926C
:103810007F928F929F92AF92BF92CF92DF92EF9260
:10382000FF920F931F93CF93DF93CDB7DEB76097CF
:103830000FB6F894DEBF0FBECDBF80917B0C8823FE
:1038400009F49BC00E94DD310091C11B1091C21B85
:103850002091C31B3091C41B06171707280739078F
:1038600008F08BC01092C11B1092C21B1092C31B98
:103870001092C41B8091990490919A04A0919B048A
:10388000B0919C04883E9340A105B10511F40E94BB
:103890008A060E948A06833011F08093C01B0E9422
:1038A000A5050E942A050E94A8046093C11B70937D
:1038B000C21B8093C31B9093C41B0E948E040E9462
:1038C00074048091990490919A04A0919B04B09102
:1038D0009C0484309440A105B10511F40E94540366
:1038E0008091990490919A04A0919B04B0919C04BA
:1038F0008234E4E09E07A105B10509F052C281E0DF
:1039000080939F028091990490919A04A0919B04C6
:10391000B0919C048C359105A105B10511F40E946C
:10392000F2010E9446048091990490919A04A0911A
:103930009B04B0919C0489369105A105B10509F459
:1039400064D90E94D9038091990490919A04A0911E
:103950009B04B0919C04803D9740A105B10509F4FA
:1039600032C28091B31B81110DC00E94D9038823FC
:1039700009F48CC181E00E94D2088091B31B882396
:1039800009F484C180E0B0DE0091B81B1091B91B2E
:103990002091BA1B3091BB1B6017710782079307F8
:1039A0002CF48091C01B882361F057C006171707BD
:1039B000280739070CF051C08091C01B882309F4F7
:1039C0004CC080919804882341F0CE01019620E1FB
:1039D000FC0111922A95E9F702C08CE89CE00E9454
:1039E000910781E00E94D2088091990490919A04F5
:1039F000A0919B04B0919C04803D9740A105B10526
:103A000011F003DC2AC080919D0490919E04A09146
:103A10009F04B091A00489839A83AB83BC8360E048
:103A2000CE0101960E9420068091990490919A04FB
:103A3000A0919B04B0919C04803D9740A105B105E5
:103A400061F489819A81AB81BC818093B81B90938A
:103A5000B91BA093BA1BB093BB1B80E045DE00915D
:103A6000BC1B1091BD1B2091BE1B3091BF1B60176A
:103A70007107820793072CF48091C01B882361F0A3
:103A800005C106171707280739070CF0FFC08091FA
:103A9000C01B882309F4FAC08091B41B9091B51B18
:103AA000A091B61BB091B71B0196A11DB11D8093CB
:103AB000B41B9093B51BA093B61BB093B71B80901B
:103AC000420490904304A0904404B090450480E2E6
:103AD000880E83E0981EA11CB11C0E94B8316815A5
:103AE00079058A059B0558F30E94B831609342041A
:103AF000709343048093440490934504E0E0F0E025
:103B000093E1A92EB12C2FE0822E912C20917C0CD8
:103B100030917D0C40917E0C50917F0C6091800C17
:103B20007091810C8091820C9091830C0E2F0E94D9
:103B30008F3F217030E040E050E060E070E080E0D6
:103B400090E0A0E031960E94AB3F99F162B142B1A2
:103B5000CF01817099279C01220F331FCF01B3E061
:103B600095958795BA95E1F79695982F882797951B
:103B70008795822B842BE1FBEE24E0F8F12CA70142
:103B800003E0440F551F0A95E1F7482BE2FBCC24D4
:103B9000C0F8D12C960185E0220F331F8A95E1F7FA
:103BA000242B22B9C5010197F1F762B9C40101972D
:103BB000F1F7EC30F10509F0A9CF8091C01B00911D
:103BC0002E0210912F02882361F1B80180E090E06D
:103BD0000E94E93B9B01AC0160E070E080E89FE35C
:103BE0000E94503B23E333E34BEC51E40E94043D3D
:103BF00020E030E048EC52E40E94043D6B017C017F
:103C00006091BC1B7091BD1B8091BE1B9091BF1B2E
:103C10000E94EB3B9B01AC01C701B6010E94BD3A7B
:103C20002BC06091BC1B7091BD1B8091BE1B9091FD
:103C3000BF1B0E94EB3B6B017C01B80180E090E070
:103C40000E94E93B9B01AC0160E070E080E89FE3EB
:103C50000E94503B23E333E34BEC51E40E94043DCC
:103C600020E030E048EC52E40E94043D9B01AC01AE
:103C7000C701B6010E94BC3A0E94B83B6093BC1BCE
:103C80007093BD1B8093BE1B9093BF1B2091960425
:103C9000309197048091A502232B09F46CC0811107
:103CA00003C081E00E94E4148091AC0C813071F774
:103CB0001092AC0C8091AD1B9091AE1BA091AF1BEC
:103CC000B091B01B46E254E0BC01660F771F660F4F
:103CD000771F20E030E0FA01C190D190E190F1909F
:103CE000AF01FB01E20FF31FE357F14FC082D18216
:103CF000E282F38220523E4F2032FDE03F0759F727
:103D0000FC01EE0FFF1FE355F34F20919C0C309107
:103D10009D0C31832083FC01E858FF4FEE0FFF1FFD
:103D2000E355F34F2091A40C3091A50C31832083EF
:103D30000196A11DB11D88379105A105B10548F473
:103D40008093AD1B9093AE1BA093AF1BB093B01BA1
:103D500008C01092AD1B1092AE1B1092AF1B1092B8
:103D6000B01B8091960490919704019790939704CB
:103D7000809396048BCF882309F4D6C060E089E055
:103D80000E944E311092B60460E089E00E944E31EC
:103D90008EE498E00E94A62E38DAAADBFADB81E0F6
:103DA000C3C08334F4E09F07A105B10519F4109254
:103DB0009F02A8CD84349440A105B10509F0A2CD9D
:103DC0000E9472029FCD80919D0490919E04A091CB
:103DD0009F04B091A00489839A83AB83BC8360E085
:103DE000CE0101960E942006B090C01B00912E02C9
:103DF00010912F02BB2011F1B80180E090E00E94E9
:103E0000E93B9B01AC0160E070E080E89FE30E9429
:103E1000503B23E333E34BEC51E40E94043D2B0180
:103E20003C0169817A818B819C810E94EB3B9B01E3
:103E3000AC01C301B2010E94BD3A21C069817A81FF
:103E40008B819C810E94EB3B2B013C01B80180E0FF
:103E500090E00E94E93B9B01AC0160E070E080E8EB
:103E60009FE30E94503B23E333E34BEC51E40E9479
:103E7000043D9B01AC01C301B2010E94BC3A0E9407
:103E8000B83B6093BC1B7093BD1B8093BE1B90938B
:103E9000BF1B8091B31B81113AC0B11002C01FEF4C
:103EA00001C011E0609134027091350280E090E031
:103EB0000E94E93BAB01BC0182E19CE075D420E3A8
:103EC00035E7129FC001139F900D1124092E000C9D
:103ED000AA0BBB0B4091220C5091230C6091240C37
:103EE0007091250C84179507A607B70759F08093A2
:103EF000220C9093230CA093240CB093250C82E108
:103F00009CE0E7D281E08093B31B10927B0C898107
:103F10009A81AB81BC818093B81B9093B91BA0930D
:103F2000BA1BB093BB1B1DCD60960FB6F894DEBFD5
:103F30000FBECDBFDF91CF911F910F91FF90EF90FA
:103F4000DF90CF90BF90AF909F908F907F906F90B9
:103F50005F904F9008954F925F926F927F92AF92D1
:103F6000BF92CF92DF92EF92FF920F931F93CF9366
:103F7000DF9300D01F92CDB7DEB782E19CE0D3D4AF
:103F80008EEC9BE0D0D48AE89BE0CDD482E19CE02B
:103F9000DAD6811122C08EEC9BE0D5D681111DC0EE
:103FA0008091A702811119C04090770C5090780C35
:103FB0006090790C70907A0C2091730C3091740C95
:103FC0004091750C5091760CC301B2010E94F93CEE
:103FD00087FD1AC081E08093A70282E19CE0B3D6FE
:103FE000811165C08EEC9BE0AED6811160C08091DE
:103FF000B31B81115CC08091A702882309F457C0CC
:1040000081E080937B0C53C0C301B2010E944D3B01
:104010006B017C0182E068DB69837A838B839C83FC
:1040200080917B0C8823E9F020E030E0A901C701F2
:10403000B6010E94043D20E030E0A9010E94BD3A93
:104040000E94B83BA0906F0CB090700CC090710CA7
:10405000D090720CE980FA800B811C819B01AC012D
:1040600003D980916E0C882369F0A30192016091BD
:1040700006027091070280910802909109020E9445
:10408000BD3A0CC02091060230910702409108020F
:1040900050910902C301B2010E94BC3A6093770CAF
:1040A0007093780C8093790C90937A0C96CF0F9044
:1040B0000F900F900F90DF91CF911F910F91FF9074
:1040C000EF90DF90CF90BF90AF907F906F905F9018
:1040D0004F9008951F920F920FB60F9211240BB6B6
:1040E0000F922F933F934F935F936F937F938F9391
:1040F0009F93AF93BF93EF93FF938091B11B9091E8
:10410000B21B0196813921E0920728F49093B21BEB
:104110008093B11B05C01092B21B1092B11B1BDF24
:10412000FF91EF91BF91AF919F918F917F916F918F
:104130005F914F913F912F910F900BBE0F900FBE4B
:104140000F901F9018952F923F924F925F926F920F
:104150007F928F929F92AF92BF92CF92DF92EF9217
:10416000FF920F931F93CF93DF93CDB7DEB7E59701
:104170000FB6F894DEBF0FBECDBF7C018A01198255
:104180001A82DC018C91811156C1FB0180818077FC
:1041900009F451C1FA0180818F32C9F48F018191F4
:1041A0008F32E1F3DB0116966D917C9117978111A7
:1041B00004C0C7010E948C2E73C1CE0101960E94DB
:1041C0008C2E882309F437C1BE016F5F7F4FFE013B
:1041D000F296FBABEAAB80E2882EF8019F012F5FDD
:1041E0003F4F8081803211F4F901F8CFFDA3ECA399
:1041F0009F01A9014E1B5F0B8901D9018D919D0182
:10420000882341F18F3221F4CF01840F951F1BC009
:104210008C3509F410C1982F977F923209F40BC1A5
:104220008A3309F408C1982F9F7B9C3309F403C19A
:1042300092EC980F923008F4FEC080528F35C8F28D
:10424000FAC02F3239F48C01DC012D91CD012032DE
:10425000C1F7F9CFDA01AE0FBF1FAD014E1B5F0BE7
:10426000EA17FB0759F08E918E32B9F38032A9F329
:104270004F3F510511F00CF0DEC002C040E050E0AD
:104280005BA34AA3DE0197965D018D928AA99BA943
:10429000A817B907D1F79F01C9018E1B9F0BD90140
:1042A000DD909D01BEE2DB16B9F3B0E23B2ED314E4
:1042B00099F321E02DAB009709F01DAA9A01215036
:1042C00031096F01C40ED51E2F3FAFEF3A0749F4F5
:1042D0005EA0612CB7E07B2E312C912CA8E04A2EF9
:1042E00054C0D6019E906D01BEE29B1689F3215009
:1042F0003109EACF6F01C80ED91ED601BC91BCAB03
:10430000B03209F472C0BE3209F044C0821793077C
:1043100009F06BC0A6EDDA2EBCA9DB0EA5E0AD1549
:1043200008F03FC0B6ECDB2EBCA9DB0EA5E0AD1556
:10433000D8F5A5EADA2EDB0EB2E0BD15A8F5BFED83
:10434000DB2EACA9DA0EBDE5BD1570F1821793071F
:1043500009F49FC07314D0F1DCA8AFE9CA2ECD0CCC
:10436000A9E1AC1560F1BD2DB052BCAB642822248C
:104370002394230C6501C30CD11C3CA8D6013C92AC
:10438000A6E0A215A0F5322C0196841795070CF42F
:10439000B1CF30C0ACA9A23239F0AC3709F0BACFF6
:1043A00003C0BD3209F4BECF8217930709F467C07A
:1043B000731460F0AFE5DA2E1DAABFE5BCABAFEB1E
:1043C000DA0EB9E1BD1598F29428D1CFAAE07A1699
:1043D00009F463C0281739070CF45FC0C901BAE0BB
:1043E0007B2EA8E03A2EB0E14B2E1DAACDCF522C49
:1043F000322CCACF5EA28FA18032E9F0BDA9BB23C7
:1044000041F0862D892111F4862D01C082E089A317
:1044100014C081E089A38EA190E0D501A80FB91F37
:104420002EE72C93E8E2F0E0EC0FFD1FE80FF91FF8
:1044300021E3208302C080E033C0D8018C9188231F
:10444000B9F0AE014F5D5F4FC7010E94E1178823AD
:1044500091F380E2F701DE01119601900D928A95A9
:10446000E1F7C7010E94A62EBE016F5F7F4FB5CE58
:10447000AE014F5D5F4FC7010E94E11711C0BAE066
:104480007B1659F0AAE07A2EB8E03B2EA0E14A2E26
:104490007BCFBAE03B2E7310F5CF5EA21DAAABCF47
:1044A000E5960FB6F894DEBF0FBECDBFDF91CF917A
:1044B0001F910F91FF90EF90DF90CF90BF90AF9042
:1044C0009F908F907F906F905F904F903F902F9034
:1044D00008954F925F926F927F928F929F92AF92C8
:1044E000BF92CF92DF92EF92FF920F931F93CF93E1
:1044F000DF93EC01C888D988EA88FB888C859D8584
:10450000AE85BF85C81AD90AEA0AFB0A6C897D897B
:104510008E899F899B01AC010E94043D4B015C0187
:104520006C8D7D8D8E8D9F8D9B01AC010E94BD3A5F
:104530009B01AC01C501B4010E94503B0E94B83BF5
:10454000C114D104E104F10499F4623071058105CC
:1045500091050CF076C01CA21DA21EA21FA21C8AEF
:104560001D8A1E8A1F8A1CAA1DAA1EAA1FAAEDC088
:104570000CA91DA92EA93FA91C141D041E041F046B
:10458000FCF410161106120613064CF46C157D058A
:104590008E059F054CF52A81211153C025C00115B8
:1045A00011052105310509F44CC06C157D058E05FA
:1045B0009F050CF046C08A81882309F442C036C0AA
:1045C0001016110612061306ECF4002711279801A5
:1045D0000C191D092E093F096017710782079307FF
:1045E0001CF42A81222369F19B01AC0188279927B9
:1045F000DC01821B930BA40BB50B8CAB9DABAEAB5C
:10460000BFAB1FC00115110521053105D1F088246C
:10461000992454018C189D08AE08BF0868157905C7
:104620008A059B0574F48A8181110BC03095209511
:10463000109501951F4F2F4F3F4F0CAB1DAB2EAB6D
:104640003FAB8CA89DA8AEA8BFA881149104A1047B
:10465000B10489F488AD99ADAAADBBAD8CAF9DAF67
:10466000AEAFBFAF81E01C141D041E041F040CF08C
:1046700080E08A833FC0CCACDDACEEACFFACA701E0
:104680009601C701B6010E94BD3A2B013C01C5014C
:10469000B4010E94EB3B20E030E040E850E40E948F
:1046A000043D20E030E040E85FE30E94BD3A9B011A
:1046B000AC01C301B2010E94503B9B01AC01C70198
:1046C000B6010E94BC3A3B016C01FE01E05CFF4F69
:1046D000E080F180028113819701A8010E94F93CDA
:1046E000181614F473018601C701D8018CAF9DAF71
:1046F000AEAFBFAF3FEF831A930AA30AB30A8CAAE7
:104700009DAAAEAABFAACCACDDACEEACFFACC70193
:10471000B6010E94BD3B6CA37DA38EA39FA3A701FE
:10472000960160E074E284E799E40E94503B6C8B50
:104730007D8B8E8B9F8B2A81211107C0DC01CB01E1
:10474000B0588C8B9D8BAE8BBF8BDF91CF911F911F
:104750000F91FF90EF90DF90CF90BF90AF909F9020
:104760008F907F906F905F904F9008950F931F935D
:10477000FC010485158526853785400F511F621F72
:10478000731F0089118922893389401751076207F5
:10479000730739F0408B518B628B738B1F910F9194
:1047A00098CE1F910F910895CF92DF92EF92FF92D2
:1047B0000F931F93CF93DF93EC016A017B0120E0FD
:1047C00030E0A901C701B6010E94493B87FF04C040
:1047D000F7FAF094F7F8F094A7019601688D798DB7
:1047E0008A8D9B8D0E94493B882309F445C0C88E61
:1047F000D98EEA8EFB8E8E01005C1F4FA7019601B9
:1048000060E074E284E799E40E94503BF801608321
:104810007183828393838CA99DA9AEA9BFA9181621
:1048200019061A061B0644F56C897D898E899F89B5
:104830009B01AC010E94043D6B017C016C8D7D8D60
:104840008E8D9F8D9B01AC010E94BD3A9B01AC01F6
:10485000C701B6010E94503B0E94B83B6CAB7DABD8
:104860008EAB9FABCE01DF91CF911F910F91FF9047
:10487000EF90DF90CF902DCEDF91CF911F910F91D0
:10488000FF90EF90DF90CF900895CF92DF92EF925C
:10489000FF92CF93DF93FC0144A155A166A177A1BC
:1048A000452B462B472B11F480E036C0EC010E94CB
:1048B000B8316B017C0188A599A5AAA5BBA5B70154
:1048C000A601481B590B6A0B7B0B8CA19DA1AEA1C5
:1048D000BFA1481759076A077B0730F32A818C85E7
:1048E0009D85AE85BF85222321F00196A11DB11DB6
:1048F00003C00197A109B1098C879D87AE87BF8747
:104900004C855D856E857F85CE010E94BE0AC8A656
:10491000D9A6EAA6FBA681E0DF91CF91FF90EF90A8
:10492000DF90CF9008950F931F93CF93DF93EC0107
:10493000ACDF882311F0CE01CCDD20E030E0A9010E
:104940006C897D898E899F890E94493B811110C0A5
:1049500081E0088919892A893B894C855D856E85A6
:104960007F85041715072607370719F480E001C073
:1049700081E0DF91CF911F910F9108958F929F92C7
:10498000AF92BF92CF92DF92EF92FF921F93CF939D
:10499000DF93EC01C88CD98CEA8CFB8C4601570163
:1049A000B7FAB094B7F8B09420E030E0A901C5019F
:1049B000B4010E94F93C181654F020E030E0A9013F
:1049C000C701B6010E94493B87FD03C00CC07501B9
:1049D000640120E030E0A901C701B6010E94493B13
:1049E000811109C003C0C12CD12C76011CA21DA2CB
:1049F0001EA21FA21BC0A701960160E074E284E71B
:104A000099E40E94503B9F770E94BD3B6CA37DA31D
:104A10008EA39FA311E020E030E0A901C701B601F9
:104A20000E94F93C18160CF010E01A83CC8ADD8A3B
:104A3000EE8AFF8ADF91CF911F91FF90EF90DF9078
:104A4000CF90BF90AF909F908F9008952F923F92FC
:104A50004F925F926F927F929F92AF92BF92CF924E
:104A6000DF92EF92FF920F931F93CF93DF93CDB717
:104A7000DEB72E970FB6F894DEBF0FBECDBF9E8770
:104A80008D87962E1A015901E982FA820B831C83C5
:104A90000E94550BAD85BE855496CD90DD90ED906E
:104AA000FC90579720E030E0A901C701B6010E94B1
:104AB000493B8823B9F1A7019601C701B6010E94BD
:104AC000043D2B013C01ED85FE85648D758D868D41
:104AD000978D9B01AC010E94BD3A9B01AC01C301C3
:104AE000B2010E94503B0E94B83B2B013C01FFEFFA
:104AF0004F1A5F0A6F0A7F0A20E030E0A901C70160
:104B0000B6010E94F93C18161CF4B301A20107C0BB
:104B100044275527BA0144195509660977098D8537
:104B20009E8524DEAD85BE8558964D905D906D9036
:104B30007C905B97C10165E070E00E94113FE12C21
:104B4000F12C10E0C101330CAA0BBB0B8D839E83AB
:104B5000AF83B887CB01770FAA0BBB0B89879A87E6
:104B6000AB87BC87C12CD12C6D817E818F819885CC
:104B70000E94EB3BAB01BC018D859E8515DE40EDAF
:104B80005AEB6FEF7FEF8D859E85F0DD892D0E94BA
:104B90002631892B11F000E015C08D859E85C3DE7E
:104BA000B5E6EB16F10424F00E94FF12E12CF12C83
:104BB0009FEFE91AF90A8091C51B87FFE7CF84FFB1
:104BC000E5CF01E020E030E0A901AD85BE85549637
:104BD0006D917D918D919C9157970E94493B8823BF
:104BE00019F08D859E85CADE8D859E854EDE698590
:104BF0007A858B859C850E94EB3BAB01BC018D8542
:104C00009E85D2DD112341F01F5F123081F0002319
:104C100009F4AACF01E00BC0B601A5018D859E85E0
:104C2000A5DD8D859E857FDE8111FBCFEDCFB301A4
:104C3000A2018D859E85B8DD89819A81AB81BC8179
:104C4000ED85FE8584879587A687B787808B918BB6
:104C5000A28BB38B14AA15AA16AA17AA14A215A27E
:104C600016A217A2148A158A168A178A81E080274D
:104C70002E960FB6F894DEBF0FBECDBFDF91CF9159
:104C80001F910F91FF90EF90DF90CF90BF90AF906A
:104C90009F907F906F905F904F903F902F900895DE
:104CA000CF93DF93BC0189E897E0BAD6EC016BE1C2
:104CB00074E089E897E0B4D68C0F9D1FDF91CF9107
:104CC00008958F929F92AF92BF920F931F93CF93AD
:104CD000DF93CDB7DEB7A1970FB6F894DEBF0FBE56
:104CE000CDBF19A2423008F44AE08E010F5D1F4F7C
:104CF000842E912CA12CB12CA50194010E94243F5B
:104D0000E62FB901CA0101501109EA3014F4E05D3F
:104D100001C0E95CD801EC93232B242B252B61F7F0
:104D2000B80189E897E07CD6A1960FB6F894DEBF6B
:104D30000FBECDBFDF91CF911F910F91BF90AF906C
:104D40009F908F9008950F931F93CF93DF93EC0163
:104D500020E030E0A9016C897D898E899F890E94BD
:104D6000493B811110C081E0088919892A893B8952
:104D70004C855D856E857F850417150726073707E7
:104D800019F480E001C081E0DF91CF911F910F9174
:104D90000895CF92DF92EF92FF92CF93DF93EC01D1
:104DA0006A017B0120E030E0A901C701B6010E9441
:104DB000493B882359F0B701A601CE01DF91CF917D
:104DC000FF90EF90DF90CF900C94DE0CDF91CF91AD
:104DD000FF90EF90DF90CF900895CF93DF93EC0199
:104DE0006FA76F3F61F0862F61E00E947C316EA556
:104DF00081E068278FA5DF91CF910C944E31DF9130
:104E0000CF91089540E0682F86E59CE00C94890CD2
:104E1000CF93DF93623028F09091650C9860909367
:104E2000650C6093690C10926A0C90E490936B0C83
:104E300080936C0C90E0805C9F4F80936D0C61E0E0
:104E400080915A0C0E947C3180915B0C8F3F19F04D
:104E500061E00E947C3161E080915C0C0E947C31B9
:104E6000C6E5DCE09E0126553C408091650C84FD42
:104E700003C084E090E002C088E090E0219628170B
:104E800039072CF461E08E810E947C31EBCF8BE3FB
:104E90009DE00197F1F760E080915A0C0E944E313D
:104EA00060E080915C0C0E944E3180915B0C8F3FE2
:104EB00019F060E00E944E318091650C84FD20C0A5
:104EC00063E086E59CE00E945D0CCBE4D6E4CE0175
:104ED0000197F1F763E086E59CE00E945D0C219765
:104EE000F1F763E086E59CE00E945D0C83E592E0CB
:104EF0000197F1F762E086E59CE00E945D0C12C02C
:104F0000806280DF8BE496E40197F1F78091650C75
:104F1000806278DF83E592E00197F1F78091650C7C
:104F2000806270DF8091650C80626CDF84E080932A
:104F3000660C8CE067DF81E065DF8BE39FE1019722
:104F4000F1F782E08093670C86E0DF91CF915ACF32
:104F5000CF92DF92EF92FF920F931F93CF93C82FC0
:104F60001092730881E090E0A0E0B0E080937608B2
:104F700090937708A0937808B09379088EE698E02C
:104F80009093900880938F0810928E088FEF9FEF78
:104F9000DC018093910890939208A0939308B093BA
:104FA0009408CC2329F1C53008F0DCC020E040E0B3
:104FB00050E0BA018EE898E008D4009709F4D2C016
:104FC00000E1C09F800D911D11244097FC01E25427
:104FD000FE4F20812F7709F0C5C03896C080D18060
:104FE000E280F380C114D104E104F10421F4BAC0D9
:104FF000C12CD12C760120E0B701A6018EE898E003
:10500000E4D3FC01892B09F4ADC083859485811517
:10501000924009F0A7C08089823009F0A3C026859C
:1050200037852115310509F49DC095859093700849
:105030008FEF890F80937108C0E081E0981751F0DD
:1050400041E04C0F493019F4C09372088BC0880FAF
:10505000C42FF4CFC0937208468957894115510572
:1050600019F060E070E004C044A155A166A177A1E9
:1050700040937A0850937B0860937C0870937D0876
:10508000D701C601820F931FA11DB11D8C019D0187
:105090008093820890938308A0938408B093850836
:1050A000818992899093750880937408440F551FE5
:1050B000661F771F400F511F621F731F40938A089E
:1050C00050938B0860938C0870938D08B5E0880F1F
:1050D000991FBA95E1F781509E4F892F99278695A0
:1050E000480F591F611D711D40937E0850937F0822
:1050F00060938008709381082389348921153105D4
:1051000021F0C901A0E0B0E004C080A191A1A2A15A
:10511000B3A197018601041B150B260B370BB901B0
:10512000A801480F591F6A1F7B1F04C07695679519
:1051300057954795CA95D2F7DB01CA010196A11D83
:10514000B11D8093860890938708A0938808B09338
:105150008908453F1FE051076105710528F48CE07F
:105160008093730880E017C0453F5F4F610571056C
:1051700010F480E10DC084A595A5A6A5B7A58093E0
:105180008A0890938B08A0938C08B0938D0880E2D6
:105190008093730881E0CF911F910F91FF90EF9062
:1051A000DF90CF900895843008F083E09091690CEF
:1051B000891710F08FEF890FE82FF0E0EA5AF34FCC
:1051C000848980681FCECF92DF92EF92FF920F9377
:1051D0001F93CF93DF936C017A018B01C0E0D0E085
:1051E000CE15DF0581F0D8016D918D01D601ED91CD
:1051F000FC910190F081E02DC6011995892B11F0E9
:105200002196EECF7E01C701DF91CF911F910F91C3
:10521000FF90EF90DF90CF900895FC01538D448D67
:10522000252F30E0842F90E0821B930B541710F051
:10523000CF96089501970895FC01918D828D98175E
:1052400061F0828DDF01A80FB11D5D968C91928D6A
:105250009F5F9F73928F90E008958FEF9FEF089567
:10526000FC01918D828D981731F0828DE80FF11D30
:10527000858D90E008958FEF9FEF0895FC01918D4B
:10528000228D892F90E0805C9F4F821B91098F7344
:105290009927089589E897E0F1DF21E0892B09F447
:1052A00020E0822F0895FC01848DDF01A80FB11D3D
:1052B000A35ABF4F2C91848D90E001968F7399274C
:1052C000848FA689B7892C93A089B1898C9183702A
:1052D00080648C93938D848D981306C00288F38923
:1052E000E02D80818F7D80830895EF92FF920F9350
:1052F0001F93CF93DF93EC0181E0888F9B8D8C8D82
:10530000981305C0E889F989808185FD25C0F62EAE
:105310000B8D10E00F5F1F4F0F731127E02E8C8D48
:10532000E8120BC00FB607FCFACFE889F989808133
:1053300085FFF5CFCE01B7DFF2CF8B8DFE01E80FF1
:10534000F11DE35AFF4FF0829FB7F8940B8FEA8963
:10535000FB89808180620AC09FB7F894EE89FF893B
:105360006083E889F98980818370806480839FBF2E
:1053700081E090E0DF91CF911F910F91FF90EF902E
:105380000895CF93DF93EC01888D8823C1F0EA89DB
:10539000FB89808185FD05C0A889B9898C9186FD2E
:1053A0000EC00FB607FCF5CF808185FFF2CFA8892C
:1053B000B9898C9185FFEDCFCE0175DFE8CFDF9104
:1053C000CF91089580E090E0892B19F063DF81117F
:1053D00025C080E090E0892B41F080E090E0892BAF
:1053E00021F00E94000081111CC080E090E0892B18
:1053F00041F080E090E0892B21F00E9400008111B3
:1054000013C080E090E0892BA1F080E090E0892B30
:1054100081F00E94000081110AC008950E940000DE
:10542000D8CF0E940000E1CF0E940000EACF0C9488
:10543000000008950E94C63F1F920F920FB60F9270
:1054400011240BB60F922F933F934F935F936F935B
:105450007F938F939F93AF93BF93EF93FF9389E8CD
:1054600097E021DFFF91EF91BF91AF919F918F91D5
:105470007F916F915F914F913F912F910F900BBE54
:105480000F900FBE0F901F9018951F920F920FB69E
:105490000F9211240BB60F922F938F939F93EF933C
:1054A000FF93E0919907F0919A078081E0919F071F
:1054B000F091A00782FD12C090818091A2078F5FBA
:1054C0008F732091A307821751F0E091A207F0E0BB
:1054D000E757F84F958F8093A20701C08081FF9115
:1054E000EF919F918F912F910F900BBE0F900FBE58
:1054F0000F901F901895CF93DF93EC01E981FA810B
:10550000908181819CBD8DBDE981FA8160E08281BD
:10551000C5D681E08B83DF91CF9108958EBD0DB408
:1055200007FEFDCF08958FEF8EBD0DB407FEFDCFB2
:105530008EB508950F931F93CF93DF93EB013DD763
:105540008B01F1DF8F3F41F038D7601B710BC6171D
:10555000D707B8F780E001C081E0DF91CF911F91BC
:105560000F910895CF93DF93FC012381222351F003
:10557000EC010180F281E02D61E082818FD68FEF16
:10558000CDDF1B82DF91CF9108950F931F93CF93AF
:10559000DF938C01862FEA01C1DF88818EBD89816E
:1055A000FE013296DE5F0DB407FEFDCF8EBDEC1717
:1055B000FD0711F08191F7CF0DB407FEFDCF8FEFFE
:1055C000ADDF8FEFABDFAFDFF80184838F71853004
:1055D00031F087E58083C801C5DF80E001C081E04C
:1055E000DF91CF911F910F910895FF920F931F9319
:1055F000CF93DF9300D01F92CDB7DEB78C01F62E8C
:1056000029833A834B835C83FC018381811102C02F
:10561000C80171DFFF2021F06CE271E0C8018ADF70
:105620008F2D80647BDF8C8179DF8B8177DF8A81AE
:1056300075DF898173DFFF2011F087E801C085E9FC
:105640006DDF71DF8BE0F82E6EDFF801848387FF5A
:1056500003C0FA94F110F8CF0F900F900F900F90B5
:10566000DF91CF911F910F91FF9008950F931F939A
:10567000CF93DF93EC0189018D81833039F089E08C
:10568000440F551F661F771F8A95D1F79A01AB010A
:1056900068E1CE01AADF882311F082E31EC0A801D1
:1056A0006EEFCE0172DF8823C9F060ED77E0CE01A6
:1056B00041DF182F811102C08AE50FC020E030E0E1
:1056C000A9016DE0CE0191DF811106C02CDF8111AF
:1056D00003C0CE0147DF05C089E28883CE0142DFE7
:1056E00010E0812FDF91CF911F910F9108950F93BB
:1056F0001F93CF93DF93EC0189018D81833039F0C3
:1057000089E0440F551F661F771F8A95D1F79A01CC
:10571000AB0161E1CE0169DF882319F080E3888362
:105720000AC0B801CE010E942916182F882319F04B
:10573000CE0118DF03C0CE0115DF10E0812FDF910D
:10574000CF911F910F910895EF92FF921F93CF93E6
:10575000DF93FC01208120FF30C0EC017C01F7E0E9
:10576000EF0EF11C4B815C816D817E81E981FA81B4
:105770009701808191817ADF182F811102C010E09A
:105780001DC0888181FD04C088818E7F888316C0FA
:10579000E981FA814B815C816D817E81848595856B
:1057A000A685B785480F591F6A1F7B1F9701808107
:1057B00091815CDF8111E8CFE2CF11E0812FDF9191
:1057C000CF911F91FF90EF900895CF92DF92EF92CB
:1057D000FF921F93CF93DF93EC016A017B01122F9D
:1057E0008B819C81AD81BE8184179507A607B70781
:1057F000E1F0CE01A9DF811103C080E090E01BC081
:1058000012FF06C01882CB82DC82ED82FE820DC0C0
:10581000E981FA819E01295F3F4FB701A60180818E
:10582000918165DF8111EECFE8CF13708881182B4D
:105830001883CE010796DF91CF911F91FF90EF90D3
:10584000DF90CF9008958F929F92AF92BF92CF92A8
:10585000DF92EF92FF920F931F9342305105610543
:10586000710510F480E053C0FC01C08CD18CE28C37
:10587000F38CC416D506E606F706A0F348015901D5
:105880006A017B018581803231F584899589A689F9
:10589000B78917E076956795579547951A95D1F78B
:1058A000480F591F6A1F7B1F23E0CF0180968DDFB1
:1058B0000097C1F2E894C7F8DD24EE24FF24CC0C55
:1058C000DD1CCC0CDD1CFC01EC0DFD1D80829182E9
:1058D000A282B3821BC0803129F64489558966892A
:1058E00077894D0D511D611D711D23E0CF018096FB
:1058F0006CDF009709F4B6CFDD24EE24FF24CC0C36
:10590000DD1CFC01EC0DFD1D9182808281E01F9168
:105910000F91FF90EF90DF90CF90BF90AF909F904E
:105920008F900895CF92DF92EF92FF920F931F9383
:10593000CF93DF93423051056105710510F48FEF6D
:1059400066C0FC01C08CD18CE28CF38CC416D506E9
:10595000E606F706A0F389016A017B01EC01858167
:10596000803239F584899589A689B789E7E07695EB
:10597000679557954795EA95D1F7480F591F6A1FC4
:105980007B1F22E0CE01809620DF0097C1F2E894D1
:10599000C7F8DD24EE24FF24CC0CDD1CCC0CDD1C70
:1059A000FC01EC0DFD1D80819181A281B381BF704E
:1059B0001DC0803121F644895589668977894D0D4E
:1059C000511D611D711D22E0CF018096FEDE009702
:1059D00009F4B5CFDD24EE24FF24CC0CDD1CFC0142
:1059E000EC0DFD1D80819181A0E0B0E0488D598DC6
:1059F0006A8D7B8D481759076A077B0738F0F801D5
:105A000080839183A283B38381E001C080E0DF9132
:105A1000CF911F910F91FF90EF90DF90CF9008955D
:105A20006115710579F0FB0101900020E9F73197CC
:105A3000AF01461B570BDC01ED91FC910280F38115
:105A4000E02D199480E090E00895FC019C01255F11
:105A50003F4F80E0982F90FB979597F98191890FA0
:105A60002E173F07B9F70895CF93DF93FC012081EC
:105A7000211102C081E041C0EC01828182FF36C069
:105A800044895589668977898681978121E0809646
:105A90009CDE009729F489818160898380E02DC094
:105AA000EC81FD81EF70FF2725E0EE0FFF1F2A95A7
:105AB000E1F7E80FF91F309771F38081853E59F3C4
:105AC000888183FF08C0888D998DAA8DBB8D848FB6
:105AD000958FA68FB78F8C8D9D8DAE8DBF8D938F3B
